{
  "contractName": "Excercise",
  "abi": [
    {
      "constant": true,
      "inputs": [
        {
          "name": "",
          "type": "uint256"
        }
      ],
      "name": "OrderDetail",
      "outputs": [
        {
          "name": "escrowId",
          "type": "uint256"
        },
        {
          "name": "itemId",
          "type": "uint256"
        },
        {
          "name": "payment",
          "type": "uint256"
        },
        {
          "name": "seller",
          "type": "address"
        },
        {
          "name": "buyer",
          "type": "address"
        },
        {
          "name": "sellerId",
          "type": "uint256"
        },
        {
          "name": "buyerId",
          "type": "uint256"
        },
        {
          "name": "complain",
          "type": "bool"
        },
        {
          "name": "accepted",
          "type": "bool"
        },
        {
          "name": "complaint",
          "type": "string"
        }
      ],
      "payable": false,
      "stateMutability": "view",
      "type": "function"
    },
    {
      "constant": true,
      "inputs": [],
      "name": "totalEscrow",
      "outputs": [
        {
          "name": "",
          "type": "uint256"
        }
      ],
      "payable": false,
      "stateMutability": "view",
      "type": "function"
    },
    {
      "constant": true,
      "inputs": [
        {
          "name": "",
          "type": "uint256"
        }
      ],
      "name": "escrowLength",
      "outputs": [
        {
          "name": "escrowId",
          "type": "uint256"
        },
        {
          "name": "itemId",
          "type": "uint256"
        },
        {
          "name": "payment",
          "type": "uint256"
        },
        {
          "name": "seller",
          "type": "address"
        },
        {
          "name": "buyer",
          "type": "address"
        },
        {
          "name": "sellerId",
          "type": "uint256"
        },
        {
          "name": "buyerId",
          "type": "uint256"
        },
        {
          "name": "complain",
          "type": "bool"
        },
        {
          "name": "accepted",
          "type": "bool"
        },
        {
          "name": "complaint",
          "type": "string"
        }
      ],
      "payable": false,
      "stateMutability": "view",
      "type": "function"
    },
    {
      "constant": true,
      "inputs": [
        {
          "name": "",
          "type": "uint256"
        }
      ],
      "name": "ItemsDetail",
      "outputs": [
        {
          "name": "itemId",
          "type": "uint256"
        },
        {
          "name": "title",
          "type": "string"
        },
        {
          "name": "price",
          "type": "uint256"
        },
        {
          "name": "seller",
          "type": "address"
        },
        {
          "name": "sellerId",
          "type": "uint256"
        }
      ],
      "payable": false,
      "stateMutability": "view",
      "type": "function"
    },
    {
      "inputs": [],
      "payable": false,
      "stateMutability": "nonpayable",
      "type": "constructor"
    },
    {
      "constant": false,
      "inputs": [
        {
          "name": "amount",
          "type": "uint256"
        },
        {
          "name": "_buyerId",
          "type": "uint256"
        }
      ],
      "name": "setBuyerBalance",
      "outputs": [],
      "payable": false,
      "stateMutability": "nonpayable",
      "type": "function"
    },
    {
      "constant": false,
      "inputs": [
        {
          "name": "amount",
          "type": "uint256"
        },
        {
          "name": "_sellerId",
          "type": "uint256"
        }
      ],
      "name": "setSellerBalance",
      "outputs": [],
      "payable": false,
      "stateMutability": "nonpayable",
      "type": "function"
    },
    {
      "constant": true,
      "inputs": [
        {
          "name": "buyerId",
          "type": "uint256"
        }
      ],
      "name": "buyerBalance",
      "outputs": [
        {
          "name": "",
          "type": "uint256"
        }
      ],
      "payable": false,
      "stateMutability": "view",
      "type": "function"
    },
    {
      "constant": true,
      "inputs": [
        {
          "name": "sellerId",
          "type": "uint256"
        }
      ],
      "name": "sellerBalance",
      "outputs": [
        {
          "name": "",
          "type": "uint256"
        }
      ],
      "payable": false,
      "stateMutability": "view",
      "type": "function"
    },
    {
      "constant": false,
      "inputs": [
        {
          "name": "_title",
          "type": "string"
        },
        {
          "name": "_price",
          "type": "uint256"
        },
        {
          "name": "_sellerId",
          "type": "uint256"
        }
      ],
      "name": "addItem",
      "outputs": [],
      "payable": false,
      "stateMutability": "nonpayable",
      "type": "function"
    },
    {
      "constant": false,
      "inputs": [
        {
          "name": "_itemId",
          "type": "uint256"
        },
        {
          "name": "_buyerId",
          "type": "uint256"
        }
      ],
      "name": "BuyItem",
      "outputs": [],
      "payable": false,
      "stateMutability": "nonpayable",
      "type": "function"
    },
    {
      "constant": false,
      "inputs": [
        {
          "name": "_orderId",
          "type": "uint256"
        }
      ],
      "name": "acceptOrder",
      "outputs": [],
      "payable": false,
      "stateMutability": "nonpayable",
      "type": "function"
    },
    {
      "constant": false,
      "inputs": [
        {
          "name": "_orderId",
          "type": "uint256"
        },
        {
          "name": "_complaint",
          "type": "string"
        }
      ],
      "name": "rejectOrder",
      "outputs": [],
      "payable": false,
      "stateMutability": "nonpayable",
      "type": "function"
    },
    {
      "constant": true,
      "inputs": [
        {
          "name": "_buyerId",
          "type": "uint256"
        }
      ],
      "name": "myOrders",
      "outputs": [
        {
          "name": "",
          "type": "uint256[]"
        }
      ],
      "payable": false,
      "stateMutability": "view",
      "type": "function"
    }
  ],
  "bytecode": "0x6080604052600080556000600155600060025534801561001e57600080fd5b506117338061002e6000396000f3006080604052600436106100c5576000357c0100000000000000000000000000000000000000000000000000000000900463ffffffff16806324a37576146100ca57806331fbe91c1461013d578063647e98ee146101745780636e1120f8146102b95780638b3e40f6146102f0578063a3d8984414610331578063c0cfc9b31461035c578063c2e673ec1461039d578063c3bca0c2146103d4578063d5e6c33314610519578063ead2e93d14610596578063ef18e9ed14610684578063fd6141de146106b1575b600080fd5b3480156100d657600080fd5b5061013b60048036038101908080359060200190929190803590602001908201803590602001908080601f0160208091040260200160405190810160405280939291908181526020018383808284378201915050505050509192919290505050610733565b005b34801561014957600080fd5b5061017260048036038101908080359060200190929190803590602001909291905050506108e3565b005b34801561018057600080fd5b5061019f60048036038101908080359060200190929190505050610902565b604051808b81526020018a81526020018981526020018873ffffffffffffffffffffffffffffffffffffffff1673ffffffffffffffffffffffffffffffffffffffff1681526020018773ffffffffffffffffffffffffffffffffffffffff1673ffffffffffffffffffffffffffffffffffffffff168152602001868152602001858152602001841515151581526020018315151515815260200180602001828103825283818151815260200191508051906020019080838360005b8381101561027557808201518184015260208101905061025a565b50505050905090810190601f1680156102a25780820380516001836020036101000a031916815260200191505b509b50505050505050505050505060405180910390f35b3480156102c557600080fd5b506102ee6004803603810190808035906020019092919080359060200190929190505050610a48565b005b3480156102fc57600080fd5b5061031b60048036038101908080359060200190929190505050610a67565b6040518082815260200191505060405180910390f35b34801561033d57600080fd5b50610346610a87565b6040518082815260200191505060405180910390f35b34801561036857600080fd5b5061038760048036038101908080359060200190929190505050610a8d565b6040518082815260200191505060405180910390f35b3480156103a957600080fd5b506103d26004803603810190808035906020019092919080359060200190929190505050610aad565b005b3480156103e057600080fd5b506103ff6004803603810190808035906020019092919050505061103c565b604051808b81526020018a81526020018981526020018873ffffffffffffffffffffffffffffffffffffffff1673ffffffffffffffffffffffffffffffffffffffff1681526020018773ffffffffffffffffffffffffffffffffffffffff1673ffffffffffffffffffffffffffffffffffffffff168152602001868152602001858152602001841515151581526020018315151515815260200180602001828103825283818151815260200191508051906020019080838360005b838110156104d55780820151818401526020810190506104ba565b50505050905090810190601f1680156105025780820380516001836020036101000a031916815260200191505b509b50505050505050505050505060405180910390f35b34801561052557600080fd5b50610594600480360381019080803590602001908201803590602001908080601f01602080910402602001604051908101604052809392919081815260200183838082843782019150505050505091929192908035906020019092919080359060200190929190505050611191565b005b3480156105a257600080fd5b506105c160048036038101908080359060200190929190505050611280565b60405180868152602001806020018581526020018473ffffffffffffffffffffffffffffffffffffffff1673ffffffffffffffffffffffffffffffffffffffff168152602001838152602001828103825286818151815260200191508051906020019080838360005b8381101561064557808201518184015260208101905061062a565b50505050905090810190601f1680156106725780820380516001836020036101000a031916815260200191505b50965050505050505060405180910390f35b34801561069057600080fd5b506106af6004803603810190808035906020019092919050505061136e565b005b3480156106bd57600080fd5b506106dc600480360381019080803590602001909291905050506114f2565b6040518080602001828103825283818151815260200191508051906020019060200280838360005b8381101561071f578082015181840152602081019050610704565b505050509050019250505060405180910390f35b60003373ffffffffffffffffffffffffffffffffffffffff166005600085815260200190815260200160002060040160009054906101000a900473ffffffffffffffffffffffffffffffffffffffff1673ffffffffffffffffffffffffffffffffffffffff161480156107cd5750600015156005600085815260200190815260200160002060070160009054906101000a900460ff161515145b80156108005750600015156005600085815260200190815260200160002060070160019054906101000a900460ff161515145b151561080b57600080fd5b60016005600085815260200190815260200160002060070160006101000a81548160ff021916908315150217905550816005600085815260200190815260200160002060080190805190602001906108649291906115e2565b5060056000848152602001908152602001600020600601549050600560008481526020019081526020016000206002015460066000838152602001908152602001600020600101600082825401925050819055506005600084815260200190815260200160002060020154600260008282540392505081905550505050565b8160076000838152602001908152602001600020600101819055505050565b60056020528060005260406000206000915090508060000154908060010154908060020154908060030160009054906101000a900473ffffffffffffffffffffffffffffffffffffffff16908060040160009054906101000a900473ffffffffffffffffffffffffffffffffffffffff16908060050154908060060154908060070160009054906101000a900460ff16908060070160019054906101000a900460ff1690806008018054600181600116156101000203166002900480601f016020809104026020016040519081016040528092919081815260200182805460018160011615610100020316600290048015610a3e5780601f10610a1357610100808354040283529160200191610a3e565b820191906000526020600020905b815481529060010190602001808311610a2157829003601f168201915b505050505090508a565b8160066000838152602001908152602001600020600101819055505050565b600060076000838152602001908152602001600020600101549050919050565b60025481565b600060066000838152602001908152602001600020600101549050919050565b60003373ffffffffffffffffffffffffffffffffffffffff166004600085815260200190815260200160002060030160009054906101000a900473ffffffffffffffffffffffffffffffffffffffff1673ffffffffffffffffffffffffffffffffffffffff1614158015610b4d57506004600084815260200190815260200160002060020154600660008481526020019081526020016000206001015410155b8015610b7057506000600460008581526020019081526020016000206000015414155b1515610b7b57600080fd5b6001600080828254019250508190555060046000848152602001908152602001600020600401549050610140604051908101604052806000548152602001848152602001600460008681526020019081526020016000206002015481526020016004600086815260200190815260200160002060030160009054906101000a900473ffffffffffffffffffffffffffffffffffffffff1673ffffffffffffffffffffffffffffffffffffffff1681526020013373ffffffffffffffffffffffffffffffffffffffff1681526020018281526020018381526020016000151581526020016000151581526020016020604051908101604052806000815250815250600560008054815260200190815260200160002060008201518160000155602082015181600101556040820151816002015560608201518160030160006101000a81548173ffffffffffffffffffffffffffffffffffffffff021916908373ffffffffffffffffffffffffffffffffffffffff16021790555060808201518160040160006101000a81548173ffffffffffffffffffffffffffffffffffffffff021916908373ffffffffffffffffffffffffffffffffffffffff16021790555060a0820151816005015560c0820151816006015560e08201518160070160006101000a81548160ff0219169083151502179055506101008201518160070160016101000a81548160ff021916908315150217905550610120820151816008019080519060200190610dad929190611662565b509050506008610140604051908101604052806000548152602001858152602001600460008781526020019081526020016000206002015481526020016004600087815260200190815260200160002060030160009054906101000a900473ffffffffffffffffffffffffffffffffffffffff1673ffffffffffffffffffffffffffffffffffffffff1681526020013373ffffffffffffffffffffffffffffffffffffffff16815260200183815260200184815260200160001515815260200160001515815260200160206040519081016040528060008152508152509080600181540180825580915050906001820390600052602060002090600902016000909192909190915060008201518160000155602082015181600101556040820151816002015560608201518160030160006101000a81548173ffffffffffffffffffffffffffffffffffffffff021916908373ffffffffffffffffffffffffffffffffffffffff16021790555060808201518160040160006101000a81548173ffffffffffffffffffffffffffffffffffffffff021916908373ffffffffffffffffffffffffffffffffffffffff16021790555060a0820151816005015560c0820151816006015560e08201518160070160006101000a81548160ff0219169083151502179055506101008201518160070160016101000a81548160ff021916908315150217905550610120820151816008019080519060200190610fd3929190611662565b50505050600460008481526020019081526020016000206002015460066000848152602001908152602001600020600101600082825403925050819055506004600084815260200190815260200160002060020154600260008282540192505081905550505050565b60088181548110151561104b57fe5b90600052602060002090600902016000915090508060000154908060010154908060020154908060030160009054906101000a900473ffffffffffffffffffffffffffffffffffffffff16908060040160009054906101000a900473ffffffffffffffffffffffffffffffffffffffff16908060050154908060060154908060070160009054906101000a900460ff16908060070160019054906101000a900460ff1690806008018054600181600116156101000203166002900480601f0160208091040260200160405190810160405280929190818152602001828054600181600116156101000203166002900480156111875780601f1061115c57610100808354040283529160200191611187565b820191906000526020600020905b81548152906001019060200180831161116a57829003601f168201915b505050505090508a565b6001806000828254019250508190555060a06040519081016040528060015481526020018481526020018381526020013373ffffffffffffffffffffffffffffffffffffffff1681526020018281525060046000600154815260200190815260200160002060008201518160000155602082015181600101908051906020019061121c929190611662565b506040820151816002015560608201518160030160006101000a81548173ffffffffffffffffffffffffffffffffffffffff021916908373ffffffffffffffffffffffffffffffffffffffff16021790555060808201518160040155905050505050565b6004602052806000526040600020600091509050806000015490806001018054600181600116156101000203166002900480601f0160208091040260200160405190810160405280929190818152602001828054600181600116156101000203166002900480156113325780601f1061130757610100808354040283529160200191611332565b820191906000526020600020905b81548152906001019060200180831161131557829003601f168201915b5050505050908060020154908060030160009054906101000a900473ffffffffffffffffffffffffffffffffffffffff16908060040154905085565b60003373ffffffffffffffffffffffffffffffffffffffff166005600084815260200190815260200160002060040160009054906101000a900473ffffffffffffffffffffffffffffffffffffffff1673ffffffffffffffffffffffffffffffffffffffff161480156114085750600015156005600084815260200190815260200160002060070160009054906101000a900460ff161515145b801561143b5750600015156005600084815260200190815260200160002060070160019054906101000a900460ff161515145b151561144657600080fd5b60016005600084815260200190815260200160002060070160016101000a81548160ff021916908315150217905550600560008381526020019081526020016000206005015490506005600083815260200190815260200160002060020154600760008381526020019081526020016000206001016000828254019250508190555060056000838152602001908152602001600020600201546002600082825403925050819055505050565b606060008090505b600880549050811015611589578260088281548110151561151757fe5b906000526020600020906009020160060154141561157c57600360088281548110151561154057fe5b90600052602060002090600902016000015490806001815401808255809150509060018203906000526020600020016000909192909190915055505b80806001019150506114fa565b60038054806020026020016040519081016040528092919081815260200182805480156115d557602002820191906000526020600020905b8154815260200190600101908083116115c1575b5050505050915050919050565b828054600181600116156101000203166002900490600052602060002090601f016020900481019282601f1061162357805160ff1916838001178555611651565b82800160010185558215611651579182015b82811115611650578251825591602001919060010190611635565b5b50905061165e91906116e2565b5090565b828054600181600116156101000203166002900490600052602060002090601f016020900481019282601f106116a357805160ff19168380011785556116d1565b828001600101855582156116d1579182015b828111156116d05782518255916020019190600101906116b5565b5b5090506116de91906116e2565b5090565b61170491905b808211156117005760008160009055506001016116e8565b5090565b905600a165627a7a7230582090c8249ab7376c4e8a353145b8f56756695a7640368f71ec3409661f68e2f73b0029",
  "source": "pragma solidity ^0.4.24;\n\ncontract Excercise {\n    constructor() public {}\n\n    struct Item {\n        uint256 itemId;\n        string title;\n        uint256 price;\n        address seller;\n        uint256 sellerId;\n    }\n    struct Escrow {\n        uint256 escrowId;\n        uint256 itemId;\n        uint256 payment;\n        address seller;\n        address buyer;\n        uint256 sellerId;\n        uint256 buyerId;\n        bool complain;\n        bool accepted;\n        string complaint;\n    }\n    struct Buyer {\n        uint256 buyerId;\n        uint256 balance;\n    }\n    struct Seller {\n        uint256 sellerId;\n        uint256 balance;\n    }\n\n    uint256 oId = 0;\n    uint256 iId = 0;\n    uint public totalEscrow = 0;\n    uint[] arr;\n    \n    mapping(uint256 => Item) public ItemsDetail;\n    mapping(uint256 => Escrow) public OrderDetail;\n    mapping(uint256 => Buyer) private BuyerMap;\n    mapping(uint256 => Seller) private SellerMap;\n    Escrow[] public escrowLength;\n\n    function setBuyerBalance(uint256 amount, uint256 _buyerId) public {\n        BuyerMap[_buyerId].balance = amount;\n    }\n\n    function setSellerBalance(uint256 amount, uint256 _sellerId) public {\n        SellerMap[_sellerId].balance = amount;\n    }\n\n    function buyerBalance(uint256 buyerId) public view returns (uint256) {\n        return (BuyerMap[buyerId].balance);\n    }\n\n    function sellerBalance(uint256 sellerId) public view returns (uint256) {\n        return (SellerMap[sellerId].balance);\n    }\n\n    function addItem(\n        string memory _title,\n        uint256 _price,\n        uint256 _sellerId\n    ) public {\n          iId += 1;\n        ItemsDetail[iId] = Item(\n            iId,\n            _title,\n            _price,\n            msg.sender,\n            _sellerId\n        );\n    }\n\n\n    function BuyItem(uint256 _itemId, uint256 _buyerId ) public {\n        require(\n            ItemsDetail[_itemId].seller != msg.sender &&\n                BuyerMap[_buyerId].balance >= ItemsDetail[_itemId].price && ItemsDetail[_itemId].itemId != 0 \n        );\n        oId += 1;\n        uint256 _sellerId = ItemsDetail[_itemId].sellerId;\n        OrderDetail[oId] = Escrow(\n            oId,\n            _itemId,\n            ItemsDetail[_itemId].price,\n            ItemsDetail[_itemId].seller,\n            msg.sender,\n            _sellerId,\n            _buyerId,\n            false,\n            false,\n            \"\"\n        );\n        escrowLength.push(\n            Escrow({\n            escrowId:oId,\n            itemId:_itemId,\n            payment: ItemsDetail[_itemId].price,\n            seller: ItemsDetail[_itemId].seller,\n            buyer:msg.sender,\n            sellerId:_sellerId,\n            buyerId:_buyerId,\n            complain:false,\n            accepted:false,\n            complaint:\"\"\n            })\n        );\n        BuyerMap[_buyerId].balance -= ItemsDetail[_itemId].price;\n        totalEscrow += ItemsDetail[_itemId].price;\n    }\n\n    function acceptOrder(uint256 _orderId) public {\n        require(\n            OrderDetail[_orderId].buyer == msg.sender &&\n                OrderDetail[_orderId].complain == false &&\n                OrderDetail[_orderId].accepted == false\n        );\n\n        OrderDetail[_orderId].accepted = true;\n        uint256 _sellerId = OrderDetail[_orderId].sellerId;\n        SellerMap[_sellerId].balance += OrderDetail[_orderId].payment;\n        totalEscrow -=OrderDetail[_orderId].payment;\n    }\n\n    function rejectOrder(uint256 _orderId, string memory _complaint ) public {\n        require(\n            OrderDetail[_orderId].buyer == msg.sender &&\n                OrderDetail[_orderId].complain == false &&\n                OrderDetail[_orderId].accepted == false\n        );\n        OrderDetail[_orderId].complain = true;\n        OrderDetail[_orderId].complaint = _complaint;\n        uint256 _buyerId = OrderDetail[_orderId].buyerId;\n        BuyerMap[_buyerId].balance += OrderDetail[_orderId].payment;\n        totalEscrow -=OrderDetail[_orderId].payment;\n    }\n    function myOrders(uint256 _buyerId) public view returns (uint[]) {\n        for(uint256 i =0; i<escrowLength.length; i++)\n        {\n            if(escrowLength[i].buyerId == _buyerId)\n            {\n                arr.push(escrowLength[i].escrowId);\n            }\n        }\n        return arr;\n    }\n}\n",
  "sourcePath": "/home/ahb/Desktop/OpenZepplin/contracts/Excercise.sol",
  "compiler": {
    "name": "solc",
    "version": "0.4.24+commit.e67f0147.Emscripten.clang"
  },
  "schemaVersion": "2.0.1",
  "updatedAt": "2021-01-12T12:32:32.834Z"
}